{
  "_format": "hh-sol-artifact-1",
  "contractName": "CharityNFT",
  "sourceName": "contracts/CharityNFT.sol",
  "abi": [
    {
      "inputs": [
        {
          "internalType": "string",
          "name": "name",
          "type": "string"
        }
      ],
      "stateMutability": "nonpayable",
      "type": "constructor"
    },
    {
      "anonymous": false,
      "inputs": [
        {
          "indexed": true,
          "internalType": "address",
          "name": "owner",
          "type": "address"
        },
        {
          "indexed": true,
          "internalType": "address",
          "name": "approved",
          "type": "address"
        },
        {
          "indexed": true,
          "internalType": "uint256",
          "name": "tokenId",
          "type": "uint256"
        }
      ],
      "name": "Approval",
      "type": "event"
    },
    {
      "anonymous": false,
      "inputs": [
        {
          "indexed": true,
          "internalType": "address",
          "name": "owner",
          "type": "address"
        },
        {
          "indexed": true,
          "internalType": "address",
          "name": "operator",
          "type": "address"
        },
        {
          "indexed": false,
          "internalType": "bool",
          "name": "approved",
          "type": "bool"
        }
      ],
      "name": "ApprovalForAll",
      "type": "event"
    },
    {
      "anonymous": false,
      "inputs": [
        {
          "indexed": false,
          "internalType": "uint256",
          "name": "_fromTokenId",
          "type": "uint256"
        },
        {
          "indexed": false,
          "internalType": "uint256",
          "name": "_toTokenId",
          "type": "uint256"
        }
      ],
      "name": "BatchMetadataUpdate",
      "type": "event"
    },
    {
      "anonymous": false,
      "inputs": [
        {
          "indexed": false,
          "internalType": "uint256",
          "name": "_tokenId",
          "type": "uint256"
        }
      ],
      "name": "MetadataUpdate",
      "type": "event"
    },
    {
      "anonymous": false,
      "inputs": [
        {
          "indexed": true,
          "internalType": "address",
          "name": "from",
          "type": "address"
        },
        {
          "indexed": true,
          "internalType": "address",
          "name": "to",
          "type": "address"
        },
        {
          "indexed": true,
          "internalType": "uint256",
          "name": "tokenId",
          "type": "uint256"
        }
      ],
      "name": "Transfer",
      "type": "event"
    },
    {
      "inputs": [
        {
          "internalType": "address",
          "name": "to",
          "type": "address"
        },
        {
          "internalType": "uint256",
          "name": "tokenId",
          "type": "uint256"
        }
      ],
      "name": "approve",
      "outputs": [],
      "stateMutability": "nonpayable",
      "type": "function"
    },
    {
      "inputs": [
        {
          "internalType": "address",
          "name": "owner",
          "type": "address"
        }
      ],
      "name": "balanceOf",
      "outputs": [
        {
          "internalType": "uint256",
          "name": "",
          "type": "uint256"
        }
      ],
      "stateMutability": "view",
      "type": "function"
    },
    {
      "inputs": [
        {
          "internalType": "address",
          "name": "to",
          "type": "address"
        },
        {
          "internalType": "string",
          "name": "uri",
          "type": "string"
        }
      ],
      "name": "createNFT",
      "outputs": [],
      "stateMutability": "nonpayable",
      "type": "function"
    },
    {
      "inputs": [
        {
          "internalType": "uint256",
          "name": "tokenId",
          "type": "uint256"
        }
      ],
      "name": "getApproved",
      "outputs": [
        {
          "internalType": "address",
          "name": "",
          "type": "address"
        }
      ],
      "stateMutability": "view",
      "type": "function"
    },
    {
      "inputs": [
        {
          "internalType": "address",
          "name": "owner",
          "type": "address"
        },
        {
          "internalType": "address",
          "name": "operator",
          "type": "address"
        }
      ],
      "name": "isApprovedForAll",
      "outputs": [
        {
          "internalType": "bool",
          "name": "",
          "type": "bool"
        }
      ],
      "stateMutability": "view",
      "type": "function"
    },
    {
      "inputs": [],
      "name": "name",
      "outputs": [
        {
          "internalType": "string",
          "name": "",
          "type": "string"
        }
      ],
      "stateMutability": "view",
      "type": "function"
    },
    {
      "inputs": [
        {
          "internalType": "uint256",
          "name": "tokenId",
          "type": "uint256"
        }
      ],
      "name": "ownerOf",
      "outputs": [
        {
          "internalType": "address",
          "name": "",
          "type": "address"
        }
      ],
      "stateMutability": "view",
      "type": "function"
    },
    {
      "inputs": [
        {
          "internalType": "address",
          "name": "from",
          "type": "address"
        },
        {
          "internalType": "address",
          "name": "to",
          "type": "address"
        },
        {
          "internalType": "uint256",
          "name": "tokenId",
          "type": "uint256"
        }
      ],
      "name": "safeTransferFrom",
      "outputs": [],
      "stateMutability": "nonpayable",
      "type": "function"
    },
    {
      "inputs": [
        {
          "internalType": "address",
          "name": "from",
          "type": "address"
        },
        {
          "internalType": "address",
          "name": "to",
          "type": "address"
        },
        {
          "internalType": "uint256",
          "name": "tokenId",
          "type": "uint256"
        },
        {
          "internalType": "bytes",
          "name": "data",
          "type": "bytes"
        }
      ],
      "name": "safeTransferFrom",
      "outputs": [],
      "stateMutability": "nonpayable",
      "type": "function"
    },
    {
      "inputs": [
        {
          "internalType": "address",
          "name": "operator",
          "type": "address"
        },
        {
          "internalType": "bool",
          "name": "approved",
          "type": "bool"
        }
      ],
      "name": "setApprovalForAll",
      "outputs": [],
      "stateMutability": "nonpayable",
      "type": "function"
    },
    {
      "inputs": [
        {
          "internalType": "bytes4",
          "name": "interfaceId",
          "type": "bytes4"
        }
      ],
      "name": "supportsInterface",
      "outputs": [
        {
          "internalType": "bool",
          "name": "",
          "type": "bool"
        }
      ],
      "stateMutability": "view",
      "type": "function"
    },
    {
      "inputs": [],
      "name": "symbol",
      "outputs": [
        {
          "internalType": "string",
          "name": "",
          "type": "string"
        }
      ],
      "stateMutability": "view",
      "type": "function"
    },
    {
      "inputs": [
        {
          "internalType": "uint256",
          "name": "tokenId",
          "type": "uint256"
        }
      ],
      "name": "tokenURI",
      "outputs": [
        {
          "internalType": "string",
          "name": "",
          "type": "string"
        }
      ],
      "stateMutability": "view",
      "type": "function"
    },
    {
      "inputs": [
        {
          "internalType": "address",
          "name": "from",
          "type": "address"
        },
        {
          "internalType": "address",
          "name": "to",
          "type": "address"
        },
        {
          "internalType": "uint256",
          "name": "tokenId",
          "type": "uint256"
        }
      ],
      "name": "transferFrom",
      "outputs": [],
      "stateMutability": "nonpayable",
      "type": "function"
    }
  ],
  "bytecode": "0x60806040523480156200001157600080fd5b5060405162001b9538038062001b9583398101604081905262000034916200008d565b6040805180820190915260038152624d544b60e81b6020820152819060006200005e8382620001f1565b5060016200006d8282620001f1565b50505050620002bd565b634e487b7160e01b600052604160045260246000fd5b60006020808385031215620000a157600080fd5b82516001600160401b0380821115620000b957600080fd5b818501915085601f830112620000ce57600080fd5b815181811115620000e357620000e362000077565b604051601f8201601f19908116603f011681019083821181831017156200010e576200010e62000077565b8160405282815288868487010111156200012757600080fd5b600093505b828410156200014b57848401860151818501870152928501926200012c565b600086848301015280965050505050505092915050565b600181811c908216806200017757607f821691505b6020821081036200019857634e487b7160e01b600052602260045260246000fd5b50919050565b601f821115620001ec57600081815260208120601f850160051c81016020861015620001c75750805b601f850160051c820191505b81811015620001e857828155600101620001d3565b5050505b505050565b81516001600160401b038111156200020d576200020d62000077565b62000225816200021e845462000162565b846200019e565b602080601f8311600181146200025d5760008415620002445750858301515b600019600386901b1c1916600185901b178555620001e8565b600085815260208120601f198616915b828110156200028e578886015182559484019460019091019084016200026d565b5085821015620002ad5787850151600019600388901b60f8161c191681555b5050505050600190811b01905550565b6118c880620002cd6000396000f3fe608060405234801561001057600080fd5b50600436106100ea5760003560e01c806370a082311161008c578063a561403311610066578063a5614033146101e1578063b88d4fde146101f4578063c87b56dd14610207578063e985e9c51461021a57600080fd5b806370a08231146101a557806395d89b41146101c6578063a22cb465146101ce57600080fd5b8063095ea7b3116100c8578063095ea7b31461015757806323b872dd1461016c57806342842e0e1461017f5780636352211e1461019257600080fd5b806301ffc9a7146100ef57806306fdde0314610117578063081812fc1461012c575b600080fd5b6101026100fd3660046113b3565b610256565b60405190151581526020015b60405180910390f35b61011f610267565b60405161010e9190611420565b61013f61013a366004611433565b6102f9565b6040516001600160a01b03909116815260200161010e565b61016a610165366004611468565b610320565b005b61016a61017a366004611492565b610456565b61016a61018d366004611492565b6104cd565b61013f6101a0366004611433565b6104e8565b6101b86101b33660046114ce565b61054d565b60405190815260200161010e565b61011f6105e7565b61016a6101dc3660046114e9565b6105f6565b61016a6101ef3660046115b1565b610605565b61016a610202366004611613565b610634565b61011f610215366004611433565b6106b2565b61010261022836600461168f565b6001600160a01b03918216600090815260056020908152604080832093909416825291909152205460ff1690565b6000610261826106bd565b92915050565b606060008054610276906116c2565b80601f01602080910402602001604051908101604052809291908181526020018280546102a2906116c2565b80156102ef5780601f106102c4576101008083540402835291602001916102ef565b820191906000526020600020905b8154815290600101906020018083116102d257829003601f168201915b5050505050905090565b6000610304826106fb565b506000908152600460205260409020546001600160a01b031690565b600061032b826104e8565b9050806001600160a01b0316836001600160a01b0316036103b95760405162461bcd60e51b815260206004820152602160248201527f4552433732313a20617070726f76616c20746f2063757272656e74206f776e6560448201527f720000000000000000000000000000000000000000000000000000000000000060648201526084015b60405180910390fd5b336001600160a01b03821614806103d557506103d58133610228565b6104475760405162461bcd60e51b815260206004820152603d60248201527f4552433732313a20617070726f76652063616c6c6572206973206e6f7420746f60448201527f6b656e206f776e6572206f7220617070726f76656420666f7220616c6c00000060648201526084016103b0565b6104518383610762565b505050565b61046033826107dd565b6104c25760405162461bcd60e51b815260206004820152602d60248201527f4552433732313a2063616c6c6572206973206e6f7420746f6b656e206f776e6560448201526c1c881bdc88185c1c1c9bdd9959609a1b60648201526084016103b0565b61045183838361085c565b61045183838360405180602001604052806000815250610634565b6000818152600260205260408120546001600160a01b0316806102615760405162461bcd60e51b815260206004820152601860248201527f4552433732313a20696e76616c696420746f6b656e204944000000000000000060448201526064016103b0565b60006001600160a01b0382166105cb5760405162461bcd60e51b815260206004820152602960248201527f4552433732313a2061646472657373207a65726f206973206e6f74206120766160448201527f6c6964206f776e6572000000000000000000000000000000000000000000000060648201526084016103b0565b506001600160a01b031660009081526003602052604090205490565b606060018054610276906116c2565b610601338383610a62565b5050565b600061061060075490565b9050610620600780546001019055565b61062a8382610b30565b6104518183610b4a565b61063e33836107dd565b6106a05760405162461bcd60e51b815260206004820152602d60248201527f4552433732313a2063616c6c6572206973206e6f7420746f6b656e206f776e6560448201526c1c881bdc88185c1c1c9bdd9959609a1b60648201526084016103b0565b6106ac84848484610c24565b50505050565b606061026182610ca2565b60006001600160e01b031982167f49064906000000000000000000000000000000000000000000000000000000001480610261575061026182610daa565b6000818152600260205260409020546001600160a01b031661075f5760405162461bcd60e51b815260206004820152601860248201527f4552433732313a20696e76616c696420746f6b656e204944000000000000000060448201526064016103b0565b50565b6000818152600460205260409020805473ffffffffffffffffffffffffffffffffffffffff19166001600160a01b03841690811790915581906107a4826104e8565b6001600160a01b03167f8c5be1e5ebec7d5bd14f71427d1e84f3dd0314c0f7b2291e5b200ac8c7c3b92560405160405180910390a45050565b6000806107e9836104e8565b9050806001600160a01b0316846001600160a01b0316148061083057506001600160a01b0380821660009081526005602090815260408083209388168352929052205460ff165b806108545750836001600160a01b0316610849846102f9565b6001600160a01b0316145b949350505050565b826001600160a01b031661086f826104e8565b6001600160a01b0316146108d35760405162461bcd60e51b815260206004820152602560248201527f4552433732313a207472616e736665722066726f6d20696e636f72726563742060448201526437bbb732b960d91b60648201526084016103b0565b6001600160a01b03821661094e5760405162461bcd60e51b8152602060048201526024808201527f4552433732313a207472616e7366657220746f20746865207a65726f2061646460448201527f726573730000000000000000000000000000000000000000000000000000000060648201526084016103b0565b826001600160a01b0316610961826104e8565b6001600160a01b0316146109c55760405162461bcd60e51b815260206004820152602560248201527f4552433732313a207472616e736665722066726f6d20696e636f72726563742060448201526437bbb732b960d91b60648201526084016103b0565b6000818152600460209081526040808320805473ffffffffffffffffffffffffffffffffffffffff199081169091556001600160a01b0387811680865260038552838620805460001901905590871680865283862080546001019055868652600290945282852080549092168417909155905184937fddf252ad1be2c89b69c2b068fc378daa952ba7f163c4a11628f55a4df523b3ef91a4505050565b816001600160a01b0316836001600160a01b031603610ac35760405162461bcd60e51b815260206004820152601960248201527f4552433732313a20617070726f766520746f2063616c6c65720000000000000060448201526064016103b0565b6001600160a01b03838116600081815260056020908152604080832094871680845294825291829020805460ff191686151590811790915591519182527f17307eab39ab6107e8899845ad3d59bd9653f200f220920489ca2b5937696c31910160405180910390a3505050565b610601828260405180602001604052806000815250610e45565b6000828152600260205260409020546001600160a01b0316610bd45760405162461bcd60e51b815260206004820152602e60248201527f45524337323155524953746f726167653a2055524920736574206f66206e6f6e60448201527f6578697374656e7420746f6b656e00000000000000000000000000000000000060648201526084016103b0565b6000828152600660205260409020610bec828261174a565b506040518281527ff8e1a15aba9398e019f0b49df1a4fde98ee17ae345cb5f6b5e2c27f5033e8ce79060200160405180910390a15050565b610c2f84848461085c565b610c3b84848484610ec3565b6106ac5760405162461bcd60e51b815260206004820152603260248201527f4552433732313a207472616e7366657220746f206e6f6e20455243373231526560448201527131b2b4bb32b91034b6b83632b6b2b73a32b960711b60648201526084016103b0565b6060610cad826106fb565b60008281526006602052604081208054610cc6906116c2565b80601f0160208091040260200160405190810160405280929190818152602001828054610cf2906116c2565b8015610d3f5780601f10610d1457610100808354040283529160200191610d3f565b820191906000526020600020905b815481529060010190602001808311610d2257829003601f168201915b505050505090506000610d5d60408051602081019091526000815290565b90508051600003610d6f575092915050565b815115610da1578082604051602001610d8992919061180a565b60405160208183030381529060405292505050919050565b6108548461100f565b60006001600160e01b031982167f80ac58cd000000000000000000000000000000000000000000000000000000001480610e0d57506001600160e01b031982167f5b5e139f00000000000000000000000000000000000000000000000000000000145b8061026157507f01ffc9a7000000000000000000000000000000000000000000000000000000006001600160e01b0319831614610261565b610e4f8383611083565b610e5c6000848484610ec3565b6104515760405162461bcd60e51b815260206004820152603260248201527f4552433732313a207472616e7366657220746f206e6f6e20455243373231526560448201527131b2b4bb32b91034b6b83632b6b2b73a32b960711b60648201526084016103b0565b60006001600160a01b0384163b1561100457604051630a85bd0160e11b81526001600160a01b0385169063150b7a0290610f07903390899088908890600401611839565b6020604051808303816000875af1925050508015610f42575060408051601f3d908101601f19168201909252610f3f91810190611875565b60015b610fea573d808015610f70576040519150601f19603f3d011682016040523d82523d6000602084013e610f75565b606091505b508051600003610fe25760405162461bcd60e51b815260206004820152603260248201527f4552433732313a207472616e7366657220746f206e6f6e20455243373231526560448201527131b2b4bb32b91034b6b83632b6b2b73a32b960711b60648201526084016103b0565b805181602001fd5b6001600160e01b031916630a85bd0160e11b149050610854565b506001949350505050565b606061101a826106fb565b600061103160408051602081019091526000815290565b90506000815111611051576040518060200160405280600081525061107c565b8061105b8461121b565b60405160200161106c92919061180a565b6040516020818303038152906040525b9392505050565b6001600160a01b0382166110d95760405162461bcd60e51b815260206004820181905260248201527f4552433732313a206d696e7420746f20746865207a65726f206164647265737360448201526064016103b0565b6000818152600260205260409020546001600160a01b03161561113e5760405162461bcd60e51b815260206004820152601c60248201527f4552433732313a20746f6b656e20616c7265616479206d696e7465640000000060448201526064016103b0565b6000818152600260205260409020546001600160a01b0316156111a35760405162461bcd60e51b815260206004820152601c60248201527f4552433732313a20746f6b656e20616c7265616479206d696e7465640000000060448201526064016103b0565b6001600160a01b0382166000818152600360209081526040808320805460010190558483526002909152808220805473ffffffffffffffffffffffffffffffffffffffff19168417905551839291907fddf252ad1be2c89b69c2b068fc378daa952ba7f163c4a11628f55a4df523b3ef908290a45050565b60606000611228836112bb565b600101905060008167ffffffffffffffff81111561124857611248611525565b6040519080825280601f01601f191660200182016040528015611272576020820181803683370190505b5090508181016020015b600019017f3031323334353637383961626364656600000000000000000000000000000000600a86061a8153600a850494508461127c57509392505050565b6000807a184f03e93ff9f4daa797ed6e38ed64bf6a1f0100000000000000008310611304577a184f03e93ff9f4daa797ed6e38ed64bf6a1f010000000000000000830492506040015b6d04ee2d6d415b85acef81000000008310611330576d04ee2d6d415b85acef8100000000830492506020015b662386f26fc10000831061134e57662386f26fc10000830492506010015b6305f5e1008310611366576305f5e100830492506008015b612710831061137a57612710830492506004015b6064831061138c576064830492506002015b600a83106102615760010192915050565b6001600160e01b03198116811461075f57600080fd5b6000602082840312156113c557600080fd5b813561107c8161139d565b60005b838110156113eb5781810151838201526020016113d3565b50506000910152565b6000815180845261140c8160208601602086016113d0565b601f01601f19169290920160200192915050565b60208152600061107c60208301846113f4565b60006020828403121561144557600080fd5b5035919050565b80356001600160a01b038116811461146357600080fd5b919050565b6000806040838503121561147b57600080fd5b6114848361144c565b946020939093013593505050565b6000806000606084860312156114a757600080fd5b6114b08461144c565b92506114be6020850161144c565b9150604084013590509250925092565b6000602082840312156114e057600080fd5b61107c8261144c565b600080604083850312156114fc57600080fd5b6115058361144c565b91506020830135801515811461151a57600080fd5b809150509250929050565b634e487b7160e01b600052604160045260246000fd5b600067ffffffffffffffff8084111561155657611556611525565b604051601f8501601f19908116603f0116810190828211818310171561157e5761157e611525565b8160405280935085815286868601111561159757600080fd5b858560208301376000602087830101525050509392505050565b600080604083850312156115c457600080fd5b6115cd8361144c565b9150602083013567ffffffffffffffff8111156115e957600080fd5b8301601f810185136115fa57600080fd5b6116098582356020840161153b565b9150509250929050565b6000806000806080858703121561162957600080fd5b6116328561144c565b93506116406020860161144c565b925060408501359150606085013567ffffffffffffffff81111561166357600080fd5b8501601f8101871361167457600080fd5b6116838782356020840161153b565b91505092959194509250565b600080604083850312156116a257600080fd5b6116ab8361144c565b91506116b96020840161144c565b90509250929050565b600181811c908216806116d657607f821691505b6020821081036116f657634e487b7160e01b600052602260045260246000fd5b50919050565b601f82111561045157600081815260208120601f850160051c810160208610156117235750805b601f850160051c820191505b818110156117425782815560010161172f565b505050505050565b815167ffffffffffffffff81111561176457611764611525565b6117788161177284546116c2565b846116fc565b602080601f8311600181146117ad57600084156117955750858301515b600019600386901b1c1916600185901b178555611742565b600085815260208120601f198616915b828110156117dc578886015182559484019460019091019084016117bd565b50858210156117fa5787850151600019600388901b60f8161c191681555b5050505050600190811b01905550565b6000835161181c8184602088016113d0565b8351908301906118308183602088016113d0565b01949350505050565b60006001600160a01b0380871683528086166020840152508360408301526080606083015261186b60808301846113f4565b9695505050505050565b60006020828403121561188757600080fd5b815161107c8161139d56fea2646970667358221220cb27d3650623b4036ec1f590fadbc0d3c5a6ae1e635e402d746b26eb1bd33ec264736f6c63430008110033",
  "linkReferences": {},
  "deployedLinkReferences": {}
}