{
  "_format": "hh-sol-artifact-1",
  "contractName": "MockCharityPlatform",
  "sourceName": "contracts/MockCharityPlatform.sol",
  "abi": [
    {
      "anonymous": false,
      "inputs": [
        {
          "indexed": true,
          "internalType": "uint256",
          "name": "id",
          "type": "uint256"
        },
        {
          "indexed": true,
          "internalType": "address",
          "name": "campaign",
          "type": "address"
        }
      ],
      "name": "CampaignCreated",
      "type": "event"
    },
    {
      "anonymous": false,
      "inputs": [
        {
          "indexed": true,
          "internalType": "uint256",
          "name": "id",
          "type": "uint256"
        },
        {
          "indexed": true,
          "internalType": "address",
          "name": "donator",
          "type": "address"
        },
        {
          "indexed": false,
          "internalType": "uint256",
          "name": "amount",
          "type": "uint256"
        }
      ],
      "name": "DonationMade",
      "type": "event"
    },
    {
      "anonymous": false,
      "inputs": [
        {
          "indexed": true,
          "internalType": "uint256",
          "name": "id",
          "type": "uint256"
        },
        {
          "indexed": true,
          "internalType": "address",
          "name": "donator",
          "type": "address"
        },
        {
          "indexed": false,
          "internalType": "uint256",
          "name": "amount",
          "type": "uint256"
        }
      ],
      "name": "Refund",
      "type": "event"
    },
    {
      "inputs": [
        {
          "internalType": "uint256",
          "name": "id",
          "type": "uint256"
        },
        {
          "internalType": "address",
          "name": "to",
          "type": "address"
        }
      ],
      "name": "collectFunds",
      "outputs": [],
      "stateMutability": "nonpayable",
      "type": "function"
    },
    {
      "inputs": [
        {
          "internalType": "string",
          "name": "name",
          "type": "string"
        },
        {
          "internalType": "string",
          "name": "description",
          "type": "string"
        },
        {
          "internalType": "uint256",
          "name": "fundingGoal",
          "type": "uint256"
        },
        {
          "internalType": "uint256",
          "name": "duration",
          "type": "uint256"
        }
      ],
      "name": "createCharity",
      "outputs": [],
      "stateMutability": "nonpayable",
      "type": "function"
    },
    {
      "inputs": [],
      "name": "currCharity",
      "outputs": [
        {
          "internalType": "uint256",
          "name": "",
          "type": "uint256"
        }
      ],
      "stateMutability": "view",
      "type": "function"
    },
    {
      "inputs": [
        {
          "internalType": "uint256",
          "name": "_id",
          "type": "uint256"
        }
      ],
      "name": "donate",
      "outputs": [],
      "stateMutability": "payable",
      "type": "function"
    },
    {
      "inputs": [
        {
          "internalType": "uint256",
          "name": "id",
          "type": "uint256"
        }
      ],
      "name": "getCampaignAddress",
      "outputs": [
        {
          "internalType": "address",
          "name": "",
          "type": "address"
        }
      ],
      "stateMutability": "view",
      "type": "function"
    },
    {
      "inputs": [
        {
          "internalType": "uint256",
          "name": "id",
          "type": "uint256"
        }
      ],
      "name": "getCampaignBalance",
      "outputs": [
        {
          "internalType": "uint256",
          "name": "",
          "type": "uint256"
        }
      ],
      "stateMutability": "view",
      "type": "function"
    },
    {
      "inputs": [
        {
          "internalType": "uint256",
          "name": "id",
          "type": "uint256"
        }
      ],
      "name": "refund",
      "outputs": [],
      "stateMutability": "nonpayable",
      "type": "function"
    },
    {
      "inputs": [
        {
          "internalType": "uint256",
          "name": "id",
          "type": "uint256"
        }
      ],
      "name": "refundAll",
      "outputs": [],
      "stateMutability": "nonpayable",
      "type": "function"
    }
  ],
  "bytecode": "0x608060405234801561001057600080fd5b50614319806100206000396000f3fe608060405260043610620000855760003560e01c8063e1231ec51162000054578063e1231ec51462000126578063e9fee16f1462000179578063eb044b97146200019e578063f14faf6f14620001c357600080fd5b80631b11baf7146200008a578063278ecde114620000b55780639eaef6ad14620000dc578063c93822e11462000101575b600080fd5b3480156200009757600080fd5b50620000a260045481565b6040519081526020015b60405180910390f35b348015620000c257600080fd5b50620000da620000d4366004620011c4565b620001da565b005b348015620000e957600080fd5b50620000da620000fb36600462001289565b620005ac565b3480156200010e57600080fd5b50620000da620001203660046200131d565b62000679565b3480156200013357600080fd5b506200016062000145366004620011c4565b6000908152600160205260409020546001600160a01b031690565b6040516001600160a01b039091168152602001620000ac565b3480156200018657600080fd5b50620000da62000198366004620011c4565b620009f9565b348015620001ab57600080fd5b50620000a2620001bd366004620011c4565b62000e1f565b620000da620001d4366004620011c4565b62000eb7565b6000818152600160205260408082205490516370a0823160e01b81523360048201526001600160a01b03909116919082906370a0823190602401602060405180830381865afa15801562000232573d6000803e3d6000fd5b505050506040513d601f19601f8201168201806040525081019062000258919062001350565b9050816001600160a01b03166329dcb0cf6040518163ffffffff1660e01b81526004016020604051808303816000875af11580156200029b573d6000803e3d6000fd5b505050506040513d601f19601f82011682018060405250810190620002c1919062001350565b4211620003155760405162461bcd60e51b815260206004820152601760248201527f63616d706169676e206861736e2774206578706972656400000000000000000060448201526064015b60405180910390fd5b816001600160a01b031663d5abeb016040518163ffffffff1660e01b81526004016020604051808303816000875af115801562000356573d6000803e3d6000fd5b505050506040513d601f19601f820116820180604052508101906200037c919062001350565b826001600160a01b03166318160ddd6040518163ffffffff1660e01b8152600401602060405180830381865afa158015620003bb573d6000803e3d6000fd5b505050506040513d601f19601f82011682018060405250810190620003e1919062001350565b10620004305760405162461bcd60e51b815260206004820181905260248201527f43616e277420726566756e64207375636365737366756c2063616d706169676e60448201526064016200030c565b6000811180156200045b5750600083815260036020908152604080832033845290915290205460ff16155b620004cf5760405162461bcd60e51b815260206004820152602360248201527f486176656e277420646f6e61746564206f7220616c726561647920726566756e60448201527f646564000000000000000000000000000000000000000000000000000000000060648201526084016200030c565b6000838152600360209081526040808320338085529252808320805460ff191660011790555183908381818185875af1925050503d806000811462000531576040519150601f19603f3d011682016040523d82523d6000602084013e62000536565b606091505b50509050806200056f5760405162461bcd60e51b815260206004820152600360248201526232b93960e91b60448201526064016200030c565b604051828152339085907f21e12a7cad0da5928167e1084ea4d5fdf8d9af66657a2543a9ac76a0ca0814779060200160405180910390a350505050565b8383838333604051620005bf90620011b6565b620005cf959493929190620013b2565b604051809103906000f080158015620005ec573d6000803e3d6000fd5b5060048054600090815260016020526040808220805473ffffffffffffffffffffffffffffffffffffffff19166001600160a01b0395861617905591548082528282205492519290931692917f633109eec20320eded000fc1e2634211aa7e92ba3f5b15faf6dcdafca05094e49190a3600480549060006200066e8362001418565b919050555050505050565b60008281526001602090815260408083205481517f02d05d3f00000000000000000000000000000000000000000000000000000000815291516001600160a01b039091169384936302d05d3f9360048082019492939183900301908290875af1158015620006eb573d6000803e3d6000fd5b505050506040513d601f19601f8201168201806040525081019062000711919062001434565b6001600160a01b0316336001600160a01b031614620007735760405162461bcd60e51b815260206004820152601860248201527f4f6e6c792063726561746f722063616e20636f6c6c656374000000000000000060448201526064016200030c565b60008381526002602052604090205460ff1615620007d45760405162461bcd60e51b815260206004820152601160248201527f416c726561647920636f6c6c656374656400000000000000000000000000000060448201526064016200030c565b806001600160a01b031663d5abeb016040518163ffffffff1660e01b81526004016020604051808303816000875af115801562000815573d6000803e3d6000fd5b505050506040513d601f19601f820116820180604052508101906200083b919062001350565b816001600160a01b03166318160ddd6040518163ffffffff1660e01b8152600401602060405180830381865afa1580156200087a573d6000803e3d6000fd5b505050506040513d601f19601f82011682018060405250810190620008a0919062001350565b14620008ef5760405162461bcd60e51b815260206004820152601a60248201527f63616d706169676e206973206e6f74207375636365737366756c00000000000060448201526064016200030c565b6000838152600260209081526040808320805460ff19166001179055805163d5abeb0160e01b815290516001600160a01b03808716939086169263d5abeb019260048083019392829003018188875af115801562000951573d6000803e3d6000fd5b505050506040513d601f19601f8201168201806040525081019062000977919062001350565b604051600081818185875af1925050503d8060008114620009b5576040519150601f19603f3d011682016040523d82523d6000602084013e620009ba565b606091505b5050905080620009f35760405162461bcd60e51b815260206004820152600360248201526232b93960e91b60448201526064016200030c565b50505050565b60008181526001602090815260408083205481517f29dcb0cf00000000000000000000000000000000000000000000000000000000815291516001600160a01b039091169384936329dcb0cf9360048082019492939183900301908290875af115801562000a6b573d6000803e3d6000fd5b505050506040513d601f19601f8201168201806040525081019062000a91919062001350565b421162000ae15760405162461bcd60e51b815260206004820152601760248201527f63616d706169676e206861736e2774206578706972656400000000000000000060448201526064016200030c565b806001600160a01b031663d5abeb016040518163ffffffff1660e01b81526004016020604051808303816000875af115801562000b22573d6000803e3d6000fd5b505050506040513d601f19601f8201168201806040525081019062000b48919062001350565b816001600160a01b03166318160ddd6040518163ffffffff1660e01b8152600401602060405180830381865afa15801562000b87573d6000803e3d6000fd5b505050506040513d601f19601f8201168201806040525081019062000bad919062001350565b1062000bfc5760405162461bcd60e51b815260206004820181905260248201527f43616e277420726566756e64207375636365737366756c2063616d706169676e60448201526064016200030c565b60005b60008381526020819052604090205481101562000e1a57600083815260208190526040812080548390811062000c395762000c396200145b565b60009182526020808320909101548683526003825260408084206001600160a01b039092168085529190925291205490915060ff1615801562000cea57506040516370a0823160e01b81526001600160a01b038281166004830152600091908516906370a0823190602401602060405180830381865afa15801562000cc2573d6000803e3d6000fd5b505050506040513d601f19601f8201168201806040525081019062000ce8919062001350565b115b1562000e045760008481526003602090815260408083206001600160a01b0385811680865291909352818420805460ff1916600117905590516370a0823160e01b81526004810182905290918616906370a0823190602401602060405180830381865afa15801562000d60573d6000803e3d6000fd5b505050506040513d601f19601f8201168201806040525081019062000d86919062001350565b604051600081818185875af1925050503d806000811462000dc4576040519150601f19603f3d011682016040523d82523d6000602084013e62000dc9565b606091505b505090508062000e025760405162461bcd60e51b815260206004820152600360248201526232b93960e91b60448201526064016200030c565b505b508062000e118162001418565b91505062000bff565b505050565b60008181526001602090815260408083205481517f18160ddd00000000000000000000000000000000000000000000000000000000815291516001600160a01b03909116926318160ddd92600480820193918290030181865afa15801562000e8b573d6000803e3d6000fd5b505050506040513d601f19601f8201168201806040525081019062000eb1919062001350565b92915050565b600081815260016020908152604080832054815163d5abeb0160e01b815291516001600160a01b0390911693849363d5abeb019360048082019492939183900301908290875af115801562000f10573d6000803e3d6000fd5b505050506040513d601f19601f8201168201806040525081019062000f36919062001350565b816001600160a01b03166318160ddd6040518163ffffffff1660e01b8152600401602060405180830381865afa15801562000f75573d6000803e3d6000fd5b505050506040513d601f19601f8201168201806040525081019062000f9b919062001350565b62000fa7903462001471565b1115801562000fb65750600034115b620010045760405162461bcd60e51b815260206004820152601d60248201527f63616d706169676e2068617320726561636865642069747320676f616c00000060448201526064016200030c565b806001600160a01b03166329dcb0cf6040518163ffffffff1660e01b81526004016020604051808303816000875af115801562001045573d6000803e3d6000fd5b505050506040513d601f19601f820116820180604052508101906200106b919062001350565b4210620010bb5760405162461bcd60e51b815260206004820152601060248201527f63616d706169676e20657870697265640000000000000000000000000000000060448201526064016200030c565b6040517f40c10f190000000000000000000000000000000000000000000000000000000081523360048201523460248201526001600160a01b038216906340c10f1990604401600060405180830381600087803b1580156200111c57600080fd5b505af115801562001131573d6000803e3d6000fd5b50505060008381526020818152604080832080546001810182559084529190922001805473ffffffffffffffffffffffffffffffffffffffff191633908117909155905190915083907fe555da28bdb778f65d22794d88927ebaeca03f7de9d1b7d39245bc8fb5ca078a90620011aa9034815260200190565b60405180910390a35050565b612e5c806200148883390190565b600060208284031215620011d757600080fd5b5035919050565b634e487b7160e01b600052604160045260246000fd5b600082601f8301126200120657600080fd5b813567ffffffffffffffff80821115620012245762001224620011de565b604051601f8301601f19908116603f011681019082821181831017156200124f576200124f620011de565b816040528381528660208588010111156200126957600080fd5b836020870160208301376000602085830101528094505050505092915050565b60008060008060808587031215620012a057600080fd5b843567ffffffffffffffff80821115620012b957600080fd5b620012c788838901620011f4565b95506020870135915080821115620012de57600080fd5b50620012ed87828801620011f4565b949794965050505060408301359260600135919050565b6001600160a01b03811681146200131a57600080fd5b50565b600080604083850312156200133157600080fd5b823591506020830135620013458162001304565b809150509250929050565b6000602082840312156200136357600080fd5b5051919050565b6000815180845260005b81811015620013925760208185018101518683018201520162001374565b506000602082860101526020601f19601f83011685010191505092915050565b60a081526000620013c760a08301886200136a565b8281036020840152620013db81886200136a565b6040840196909652505060608101929092526001600160a01b031660809091015292915050565b634e487b7160e01b600052601160045260246000fd5b6000600182016200142d576200142d62001402565b5060010190565b6000602082840312156200144757600080fd5b8151620014548162001304565b9392505050565b634e487b7160e01b600052603260045260246000fd5b8082018082111562000eb15762000eb16200140256fe60806040523480156200001157600080fd5b5060405162002e5c38038062002e5c83398101604081905262000034916200025f565b604080518082019091526003808252624d544b60e81b60208301528691906200005e838262000390565b5060046200006d828262000390565b5050506200008a620000846200012e60201b60201c565b62000132565b600662000098858262000390565b506007839055620000aa82426200045c565b600855600980546001600160a01b0319166001600160a01b0383161790556040518590620000d89062000184565b620000e4919062000484565b604051809103906000f08015801562000101573d6000803e3d6000fd5b50600a80546001600160a01b0319166001600160a01b039290921691909117905550620004b99350505050565b3390565b600580546001600160a01b038381166001600160a01b0319831681179093556040519116919082907f8be0079c531659141344cd1fd0a4f28419497f9722a3daafe3b4186f6b6457e090600090a35050565b611b9580620012c783390190565b634e487b7160e01b600052604160045260246000fd5b60005b83811015620001c5578181015183820152602001620001ab565b50506000910152565b600082601f830112620001e057600080fd5b81516001600160401b0380821115620001fd57620001fd62000192565b604051601f8301601f19908116603f0116810190828211818310171562000228576200022862000192565b816040528381528660208588010111156200024257600080fd5b62000255846020830160208901620001a8565b9695505050505050565b600080600080600060a086880312156200027857600080fd5b85516001600160401b03808211156200029057600080fd5b6200029e89838a01620001ce565b96506020880151915080821115620002b557600080fd5b50620002c488828901620001ce565b6040880151606089015160808a0151929750909550935090506001600160a01b0381168114620002f357600080fd5b809150509295509295909350565b600181811c908216806200031657607f821691505b6020821081036200033757634e487b7160e01b600052602260045260246000fd5b50919050565b601f8211156200038b57600081815260208120601f850160051c81016020861015620003665750805b601f850160051c820191505b81811015620003875782815560010162000372565b5050505b505050565b81516001600160401b03811115620003ac57620003ac62000192565b620003c481620003bd845462000301565b846200033d565b602080601f831160018114620003fc5760008415620003e35750858301515b600019600386901b1c1916600185901b17855562000387565b600085815260208120601f198616915b828110156200042d578886015182559484019460019091019084016200040c565b50858210156200044c5787850151600019600388901b60f8161c191681555b5050505050600190811b01905550565b808201808211156200047e57634e487b7160e01b600052601160045260246000fd5b92915050565b6020815260008251806020840152620004a5816040850160208701620001a8565b601f01601f19169190910160400192915050565b610dfe80620004c96000396000f3fe608060405234801561001057600080fd5b506004361061016c5760003560e01c8063715018a6116100cd578063a9059cbb11610081578063d5abeb0111610066578063d5abeb01146102c9578063dd62ed3e146102d2578063f2fde38b1461030b57600080fd5b8063a9059cbb146102a3578063bbeb9a03146102b657600080fd5b80638da5cb5b116100b25780638da5cb5b1461027757806395d89b4114610288578063a457c2d71461029057600080fd5b8063715018a6146102675780637284e4161461026f57600080fd5b806329dcb0cf116101245780633950935111610109578063395093511461021657806340c10f191461022957806370a082311461023e57600080fd5b806329dcb0cf146101fe578063313ce5671461020757600080fd5b8063095ea7b311610155578063095ea7b3146101b657806318160ddd146101d957806323b872dd146101eb57600080fd5b806302d05d3f1461017157806306fdde03146101a1575b600080fd5b600954610184906001600160a01b031681565b6040516001600160a01b0390911681526020015b60405180910390f35b6101a961031e565b6040516101989190610c48565b6101c96101c4366004610cb2565b6103b0565b6040519015158152602001610198565b6002545b604051908152602001610198565b6101c96101f9366004610cdc565b6103ca565b6101dd60085481565b60405160128152602001610198565b6101c9610224366004610cb2565b6103ee565b61023c610237366004610cb2565b61042d565b005b6101dd61024c366004610d18565b6001600160a01b031660009081526020819052604090205490565b61023c6104f0565b6101a9610504565b6005546001600160a01b0316610184565b6101a9610592565b6101c961029e366004610cb2565b6105a1565b6101c96102b1366004610cb2565b610650565b600a54610184906001600160a01b031681565b6101dd60075481565b6101dd6102e0366004610d3a565b6001600160a01b03918216600090815260016020908152604080832093909416825291909152205490565b61023c610319366004610d18565b61065e565b60606003805461032d90610d6d565b80601f016020809104026020016040519081016040528092919081815260200182805461035990610d6d565b80156103a65780601f1061037b576101008083540402835291602001916103a6565b820191906000526020600020905b81548152906001019060200180831161038957829003601f168201915b5050505050905090565b6000336103be8185856106ee565b60019150505b92915050565b6000336103d8858285610846565b6103e38585856108d8565b506001949350505050565b3360008181526001602090815260408083206001600160a01b03871684529091528120549091906103be9082908690610428908790610da7565b6106ee565b610435610ac5565b61043f8282610b1f565b600a54604080517fa56140330000000000000000000000000000000000000000000000000000000081526001600160a01b0385811660048301526024820192909252600860448201527f736f6d6520757269000000000000000000000000000000000000000000000000606482015291169063a561403390608401600060405180830381600087803b1580156104d457600080fd5b505af11580156104e8573d6000803e3d6000fd5b505050505050565b6104f8610ac5565b6105026000610bde565b565b6006805461051190610d6d565b80601f016020809104026020016040519081016040528092919081815260200182805461053d90610d6d565b801561058a5780601f1061055f5761010080835404028352916020019161058a565b820191906000526020600020905b81548152906001019060200180831161056d57829003601f168201915b505050505081565b60606004805461032d90610d6d565b3360008181526001602090815260408083206001600160a01b0387168452909152812054909190838110156106435760405162461bcd60e51b815260206004820152602560248201527f45524332303a2064656372656173656420616c6c6f77616e63652062656c6f7760448201527f207a65726f00000000000000000000000000000000000000000000000000000060648201526084015b60405180910390fd5b6103e382868684036106ee565b6000336103be8185856108d8565b610666610ac5565b6001600160a01b0381166106e25760405162461bcd60e51b815260206004820152602660248201527f4f776e61626c653a206e6577206f776e657220697320746865207a65726f206160448201527f6464726573730000000000000000000000000000000000000000000000000000606482015260840161063a565b6106eb81610bde565b50565b6001600160a01b0383166107695760405162461bcd60e51b8152602060048201526024808201527f45524332303a20617070726f76652066726f6d20746865207a65726f2061646460448201527f7265737300000000000000000000000000000000000000000000000000000000606482015260840161063a565b6001600160a01b0382166107e55760405162461bcd60e51b815260206004820152602260248201527f45524332303a20617070726f766520746f20746865207a65726f20616464726560448201527f7373000000000000000000000000000000000000000000000000000000000000606482015260840161063a565b6001600160a01b0383811660008181526001602090815260408083209487168084529482529182902085905590518481527f8c5be1e5ebec7d5bd14f71427d1e84f3dd0314c0f7b2291e5b200ac8c7c3b925910160405180910390a3505050565b6001600160a01b0383811660009081526001602090815260408083209386168352929052205460001981146108d257818110156108c55760405162461bcd60e51b815260206004820152601d60248201527f45524332303a20696e73756666696369656e7420616c6c6f77616e6365000000604482015260640161063a565b6108d284848484036106ee565b50505050565b6001600160a01b0383166109545760405162461bcd60e51b815260206004820152602560248201527f45524332303a207472616e736665722066726f6d20746865207a65726f20616460448201527f6472657373000000000000000000000000000000000000000000000000000000606482015260840161063a565b6001600160a01b0382166109d05760405162461bcd60e51b815260206004820152602360248201527f45524332303a207472616e7366657220746f20746865207a65726f206164647260448201527f6573730000000000000000000000000000000000000000000000000000000000606482015260840161063a565b6001600160a01b03831660009081526020819052604090205481811015610a5f5760405162461bcd60e51b815260206004820152602660248201527f45524332303a207472616e7366657220616d6f756e742065786365656473206260448201527f616c616e63650000000000000000000000000000000000000000000000000000606482015260840161063a565b6001600160a01b03848116600081815260208181526040808320878703905593871680835291849020805487019055925185815290927fddf252ad1be2c89b69c2b068fc378daa952ba7f163c4a11628f55a4df523b3ef910160405180910390a36108d2565b6005546001600160a01b031633146105025760405162461bcd60e51b815260206004820181905260248201527f4f776e61626c653a2063616c6c6572206973206e6f7420746865206f776e6572604482015260640161063a565b6001600160a01b038216610b755760405162461bcd60e51b815260206004820152601f60248201527f45524332303a206d696e7420746f20746865207a65726f206164647265737300604482015260640161063a565b8060026000828254610b879190610da7565b90915550506001600160a01b038216600081815260208181526040808320805486019055518481527fddf252ad1be2c89b69c2b068fc378daa952ba7f163c4a11628f55a4df523b3ef910160405180910390a35050565b600580546001600160a01b038381167fffffffffffffffffffffffff0000000000000000000000000000000000000000831681179093556040519116919082907f8be0079c531659141344cd1fd0a4f28419497f9722a3daafe3b4186f6b6457e090600090a35050565b600060208083528351808285015260005b81811015610c7557858101830151858201604001528201610c59565b506000604082860101526040601f19601f8301168501019250505092915050565b80356001600160a01b0381168114610cad57600080fd5b919050565b60008060408385031215610cc557600080fd5b610cce83610c96565b946020939093013593505050565b600080600060608486031215610cf157600080fd5b610cfa84610c96565b9250610d0860208501610c96565b9150604084013590509250925092565b600060208284031215610d2a57600080fd5b610d3382610c96565b9392505050565b60008060408385031215610d4d57600080fd5b610d5683610c96565b9150610d6460208401610c96565b90509250929050565b600181811c90821680610d8157607f821691505b602082108103610da157634e487b7160e01b600052602260045260246000fd5b50919050565b808201808211156103c457634e487b7160e01b600052601160045260246000fdfea264697066735822122070b387582fb09cecd4ece9d58be4605d6051681ed368d90fa1f158065ca1400564736f6c6343000811003360806040523480156200001157600080fd5b5060405162001b9538038062001b9583398101604081905262000034916200008d565b6040805180820190915260038152624d544b60e81b6020820152819060006200005e8382620001f1565b5060016200006d8282620001f1565b50505050620002bd565b634e487b7160e01b600052604160045260246000fd5b60006020808385031215620000a157600080fd5b82516001600160401b0380821115620000b957600080fd5b818501915085601f830112620000ce57600080fd5b815181811115620000e357620000e362000077565b604051601f8201601f19908116603f011681019083821181831017156200010e576200010e62000077565b8160405282815288868487010111156200012757600080fd5b600093505b828410156200014b57848401860151818501870152928501926200012c565b600086848301015280965050505050505092915050565b600181811c908216806200017757607f821691505b6020821081036200019857634e487b7160e01b600052602260045260246000fd5b50919050565b601f821115620001ec57600081815260208120601f850160051c81016020861015620001c75750805b601f850160051c820191505b81811015620001e857828155600101620001d3565b5050505b505050565b81516001600160401b038111156200020d576200020d62000077565b62000225816200021e845462000162565b846200019e565b602080601f8311600181146200025d5760008415620002445750858301515b600019600386901b1c1916600185901b178555620001e8565b600085815260208120601f198616915b828110156200028e578886015182559484019460019091019084016200026d565b5085821015620002ad5787850151600019600388901b60f8161c191681555b5050505050600190811b01905550565b6118c880620002cd6000396000f3fe608060405234801561001057600080fd5b50600436106100ea5760003560e01c806370a082311161008c578063a561403311610066578063a5614033146101e1578063b88d4fde146101f4578063c87b56dd14610207578063e985e9c51461021a57600080fd5b806370a08231146101a557806395d89b41146101c6578063a22cb465146101ce57600080fd5b8063095ea7b3116100c8578063095ea7b31461015757806323b872dd1461016c57806342842e0e1461017f5780636352211e1461019257600080fd5b806301ffc9a7146100ef57806306fdde0314610117578063081812fc1461012c575b600080fd5b6101026100fd3660046113b3565b610256565b60405190151581526020015b60405180910390f35b61011f610267565b60405161010e9190611420565b61013f61013a366004611433565b6102f9565b6040516001600160a01b03909116815260200161010e565b61016a610165366004611468565b610320565b005b61016a61017a366004611492565b610456565b61016a61018d366004611492565b6104cd565b61013f6101a0366004611433565b6104e8565b6101b86101b33660046114ce565b61054d565b60405190815260200161010e565b61011f6105e7565b61016a6101dc3660046114e9565b6105f6565b61016a6101ef3660046115b1565b610605565b61016a610202366004611613565b610634565b61011f610215366004611433565b6106b2565b61010261022836600461168f565b6001600160a01b03918216600090815260056020908152604080832093909416825291909152205460ff1690565b6000610261826106bd565b92915050565b606060008054610276906116c2565b80601f01602080910402602001604051908101604052809291908181526020018280546102a2906116c2565b80156102ef5780601f106102c4576101008083540402835291602001916102ef565b820191906000526020600020905b8154815290600101906020018083116102d257829003601f168201915b5050505050905090565b6000610304826106fb565b506000908152600460205260409020546001600160a01b031690565b600061032b826104e8565b9050806001600160a01b0316836001600160a01b0316036103b95760405162461bcd60e51b815260206004820152602160248201527f4552433732313a20617070726f76616c20746f2063757272656e74206f776e6560448201527f720000000000000000000000000000000000000000000000000000000000000060648201526084015b60405180910390fd5b336001600160a01b03821614806103d557506103d58133610228565b6104475760405162461bcd60e51b815260206004820152603d60248201527f4552433732313a20617070726f76652063616c6c6572206973206e6f7420746f60448201527f6b656e206f776e6572206f7220617070726f76656420666f7220616c6c00000060648201526084016103b0565b6104518383610762565b505050565b61046033826107dd565b6104c25760405162461bcd60e51b815260206004820152602d60248201527f4552433732313a2063616c6c6572206973206e6f7420746f6b656e206f776e6560448201526c1c881bdc88185c1c1c9bdd9959609a1b60648201526084016103b0565b61045183838361085c565b61045183838360405180602001604052806000815250610634565b6000818152600260205260408120546001600160a01b0316806102615760405162461bcd60e51b815260206004820152601860248201527f4552433732313a20696e76616c696420746f6b656e204944000000000000000060448201526064016103b0565b60006001600160a01b0382166105cb5760405162461bcd60e51b815260206004820152602960248201527f4552433732313a2061646472657373207a65726f206973206e6f74206120766160448201527f6c6964206f776e6572000000000000000000000000000000000000000000000060648201526084016103b0565b506001600160a01b031660009081526003602052604090205490565b606060018054610276906116c2565b610601338383610a62565b5050565b600061061060075490565b9050610620600780546001019055565b61062a8382610b30565b6104518183610b4a565b61063e33836107dd565b6106a05760405162461bcd60e51b815260206004820152602d60248201527f4552433732313a2063616c6c6572206973206e6f7420746f6b656e206f776e6560448201526c1c881bdc88185c1c1c9bdd9959609a1b60648201526084016103b0565b6106ac84848484610c24565b50505050565b606061026182610ca2565b60006001600160e01b031982167f49064906000000000000000000000000000000000000000000000000000000001480610261575061026182610daa565b6000818152600260205260409020546001600160a01b031661075f5760405162461bcd60e51b815260206004820152601860248201527f4552433732313a20696e76616c696420746f6b656e204944000000000000000060448201526064016103b0565b50565b6000818152600460205260409020805473ffffffffffffffffffffffffffffffffffffffff19166001600160a01b03841690811790915581906107a4826104e8565b6001600160a01b03167f8c5be1e5ebec7d5bd14f71427d1e84f3dd0314c0f7b2291e5b200ac8c7c3b92560405160405180910390a45050565b6000806107e9836104e8565b9050806001600160a01b0316846001600160a01b0316148061083057506001600160a01b0380821660009081526005602090815260408083209388168352929052205460ff165b806108545750836001600160a01b0316610849846102f9565b6001600160a01b0316145b949350505050565b826001600160a01b031661086f826104e8565b6001600160a01b0316146108d35760405162461bcd60e51b815260206004820152602560248201527f4552433732313a207472616e736665722066726f6d20696e636f72726563742060448201526437bbb732b960d91b60648201526084016103b0565b6001600160a01b03821661094e5760405162461bcd60e51b8152602060048201526024808201527f4552433732313a207472616e7366657220746f20746865207a65726f2061646460448201527f726573730000000000000000000000000000000000000000000000000000000060648201526084016103b0565b826001600160a01b0316610961826104e8565b6001600160a01b0316146109c55760405162461bcd60e51b815260206004820152602560248201527f4552433732313a207472616e736665722066726f6d20696e636f72726563742060448201526437bbb732b960d91b60648201526084016103b0565b6000818152600460209081526040808320805473ffffffffffffffffffffffffffffffffffffffff199081169091556001600160a01b0387811680865260038552838620805460001901905590871680865283862080546001019055868652600290945282852080549092168417909155905184937fddf252ad1be2c89b69c2b068fc378daa952ba7f163c4a11628f55a4df523b3ef91a4505050565b816001600160a01b0316836001600160a01b031603610ac35760405162461bcd60e51b815260206004820152601960248201527f4552433732313a20617070726f766520746f2063616c6c65720000000000000060448201526064016103b0565b6001600160a01b03838116600081815260056020908152604080832094871680845294825291829020805460ff191686151590811790915591519182527f17307eab39ab6107e8899845ad3d59bd9653f200f220920489ca2b5937696c31910160405180910390a3505050565b610601828260405180602001604052806000815250610e45565b6000828152600260205260409020546001600160a01b0316610bd45760405162461bcd60e51b815260206004820152602e60248201527f45524337323155524953746f726167653a2055524920736574206f66206e6f6e60448201527f6578697374656e7420746f6b656e00000000000000000000000000000000000060648201526084016103b0565b6000828152600660205260409020610bec828261174a565b506040518281527ff8e1a15aba9398e019f0b49df1a4fde98ee17ae345cb5f6b5e2c27f5033e8ce79060200160405180910390a15050565b610c2f84848461085c565b610c3b84848484610ec3565b6106ac5760405162461bcd60e51b815260206004820152603260248201527f4552433732313a207472616e7366657220746f206e6f6e20455243373231526560448201527131b2b4bb32b91034b6b83632b6b2b73a32b960711b60648201526084016103b0565b6060610cad826106fb565b60008281526006602052604081208054610cc6906116c2565b80601f0160208091040260200160405190810160405280929190818152602001828054610cf2906116c2565b8015610d3f5780601f10610d1457610100808354040283529160200191610d3f565b820191906000526020600020905b815481529060010190602001808311610d2257829003601f168201915b505050505090506000610d5d60408051602081019091526000815290565b90508051600003610d6f575092915050565b815115610da1578082604051602001610d8992919061180a565b60405160208183030381529060405292505050919050565b6108548461100f565b60006001600160e01b031982167f80ac58cd000000000000000000000000000000000000000000000000000000001480610e0d57506001600160e01b031982167f5b5e139f00000000000000000000000000000000000000000000000000000000145b8061026157507f01ffc9a7000000000000000000000000000000000000000000000000000000006001600160e01b0319831614610261565b610e4f8383611083565b610e5c6000848484610ec3565b6104515760405162461bcd60e51b815260206004820152603260248201527f4552433732313a207472616e7366657220746f206e6f6e20455243373231526560448201527131b2b4bb32b91034b6b83632b6b2b73a32b960711b60648201526084016103b0565b60006001600160a01b0384163b1561100457604051630a85bd0160e11b81526001600160a01b0385169063150b7a0290610f07903390899088908890600401611839565b6020604051808303816000875af1925050508015610f42575060408051601f3d908101601f19168201909252610f3f91810190611875565b60015b610fea573d808015610f70576040519150601f19603f3d011682016040523d82523d6000602084013e610f75565b606091505b508051600003610fe25760405162461bcd60e51b815260206004820152603260248201527f4552433732313a207472616e7366657220746f206e6f6e20455243373231526560448201527131b2b4bb32b91034b6b83632b6b2b73a32b960711b60648201526084016103b0565b805181602001fd5b6001600160e01b031916630a85bd0160e11b149050610854565b506001949350505050565b606061101a826106fb565b600061103160408051602081019091526000815290565b90506000815111611051576040518060200160405280600081525061107c565b8061105b8461121b565b60405160200161106c92919061180a565b6040516020818303038152906040525b9392505050565b6001600160a01b0382166110d95760405162461bcd60e51b815260206004820181905260248201527f4552433732313a206d696e7420746f20746865207a65726f206164647265737360448201526064016103b0565b6000818152600260205260409020546001600160a01b03161561113e5760405162461bcd60e51b815260206004820152601c60248201527f4552433732313a20746f6b656e20616c7265616479206d696e7465640000000060448201526064016103b0565b6000818152600260205260409020546001600160a01b0316156111a35760405162461bcd60e51b815260206004820152601c60248201527f4552433732313a20746f6b656e20616c7265616479206d696e7465640000000060448201526064016103b0565b6001600160a01b0382166000818152600360209081526040808320805460010190558483526002909152808220805473ffffffffffffffffffffffffffffffffffffffff19168417905551839291907fddf252ad1be2c89b69c2b068fc378daa952ba7f163c4a11628f55a4df523b3ef908290a45050565b60606000611228836112bb565b600101905060008167ffffffffffffffff81111561124857611248611525565b6040519080825280601f01601f191660200182016040528015611272576020820181803683370190505b5090508181016020015b600019017f3031323334353637383961626364656600000000000000000000000000000000600a86061a8153600a850494508461127c57509392505050565b6000807a184f03e93ff9f4daa797ed6e38ed64bf6a1f0100000000000000008310611304577a184f03e93ff9f4daa797ed6e38ed64bf6a1f010000000000000000830492506040015b6d04ee2d6d415b85acef81000000008310611330576d04ee2d6d415b85acef8100000000830492506020015b662386f26fc10000831061134e57662386f26fc10000830492506010015b6305f5e1008310611366576305f5e100830492506008015b612710831061137a57612710830492506004015b6064831061138c576064830492506002015b600a83106102615760010192915050565b6001600160e01b03198116811461075f57600080fd5b6000602082840312156113c557600080fd5b813561107c8161139d565b60005b838110156113eb5781810151838201526020016113d3565b50506000910152565b6000815180845261140c8160208601602086016113d0565b601f01601f19169290920160200192915050565b60208152600061107c60208301846113f4565b60006020828403121561144557600080fd5b5035919050565b80356001600160a01b038116811461146357600080fd5b919050565b6000806040838503121561147b57600080fd5b6114848361144c565b946020939093013593505050565b6000806000606084860312156114a757600080fd5b6114b08461144c565b92506114be6020850161144c565b9150604084013590509250925092565b6000602082840312156114e057600080fd5b61107c8261144c565b600080604083850312156114fc57600080fd5b6115058361144c565b91506020830135801515811461151a57600080fd5b809150509250929050565b634e487b7160e01b600052604160045260246000fd5b600067ffffffffffffffff8084111561155657611556611525565b604051601f8501601f19908116603f0116810190828211818310171561157e5761157e611525565b8160405280935085815286868601111561159757600080fd5b858560208301376000602087830101525050509392505050565b600080604083850312156115c457600080fd5b6115cd8361144c565b9150602083013567ffffffffffffffff8111156115e957600080fd5b8301601f810185136115fa57600080fd5b6116098582356020840161153b565b9150509250929050565b6000806000806080858703121561162957600080fd5b6116328561144c565b93506116406020860161144c565b925060408501359150606085013567ffffffffffffffff81111561166357600080fd5b8501601f8101871361167457600080fd5b6116838782356020840161153b565b91505092959194509250565b600080604083850312156116a257600080fd5b6116ab8361144c565b91506116b96020840161144c565b90509250929050565b600181811c908216806116d657607f821691505b6020821081036116f657634e487b7160e01b600052602260045260246000fd5b50919050565b601f82111561045157600081815260208120601f850160051c810160208610156117235750805b601f850160051c820191505b818110156117425782815560010161172f565b505050505050565b815167ffffffffffffffff81111561176457611764611525565b6117788161177284546116c2565b846116fc565b602080601f8311600181146117ad57600084156117955750858301515b600019600386901b1c1916600185901b178555611742565b600085815260208120601f198616915b828110156117dc578886015182559484019460019091019084016117bd565b50858210156117fa5787850151600019600388901b60f8161c191681555b5050505050600190811b01905550565b6000835161181c8184602088016113d0565b8351908301906118308183602088016113d0565b01949350505050565b60006001600160a01b0380871683528086166020840152508360408301526080606083015261186b60808301846113f4565b9695505050505050565b60006020828403121561188757600080fd5b815161107c8161139d56fea2646970667358221220cb27d3650623b4036ec1f590fadbc0d3c5a6ae1e635e402d746b26eb1bd33ec264736f6c63430008110033a2646970667358221220b5119a7f021b410df1fff15d1775bcfabbaa620539afc6de59690c91007392f864736f6c63430008110033",
  "linkReferences": {},
  "deployedLinkReferences": {}
}